:020000040800F2
:10000000B8060020C1010008A30F00089F0F0008D8
:10001000A10F00081B0400083112000800000000B6
:10002000000000000000000000000000291000088F
:100030001D04000800000000A50F00082B10000898
:10004000DB010008DB010008DB010008DB01000820
:10005000DB010008DB010008DB010008DB01000810
:10006000DB010008DB010008DB010008DB01000800
:10007000DB010008DB010008DB010008DB010008F0
:10008000DB010008DB010008DB010008DB010008E0
:10009000DB010008DB010008DB010008DB010008D0
:1000A00000000000DB010008DB010008DB010008A4
:1000B000DB010008DB010008DB010008DB010008B0
:1000C000DB010008DB010008DB010008DB010008A0
:1000D000DB010008DB010008DB010008DB01000890
:1000E000DB010008DB010008DB010008DB01000880
:1000F000DB01000800000000DB010008DB01000854
:100100000000000000000000DB010008DB01000827
:10011000DB010008DB010008DB0100080000000033
:10012000DB01000800F002F800F03AF80AA090E8BD
:10013000000C82448344AAF10107DA4501D100F0A2
:100140002FF8AFF2090EBAE80F0013F0010F18BF35
:10015000FB1A43F001031847D0110000F011000012
:10016000103A24BF78C878C1FAD8520724BF30C8E3
:1001700030C144BF04680C607047000000230024B5
:1001800000250026103A28BF78C1FBD8520728BFA7
:1001900030C148BF0B6070471FB51FBD10B510BD03
:1001A00000F001F91146FFF7F7FF01F053F800F0F6
:1001B0001FF903B4FFF7F2FF03BC00F027F90000BA
:1001C0000948804709480047FEE7FEE7FEE7FEE7EB
:1001D000FEE7FEE7FEE7FEE7FEE7FEE70448054927
:1001E000054A064B704700009910000825010008D9
:1001F000B8000020B8060020B8020020B802002095
:1002000053EA020C00F069802DE9F04B4FF0000634
:10021000002B1FBFB3FA83F503FA05F424FA05F6A1
:100220005E4012BF1643B2FA82F502FA05F4C5F138
:1002300020051EBF22FA05FC44EA0C04203556EACC
:10024000044C4FEA144418BF641C4FF000084FF0F0
:100250000009904271EB030C39D3002919BFB1FAA0
:1002600081F701FA07F6B0FA80F700FA07F6C7F14E
:1002700020071EBF20FA07FC46EA0C062037B6FB13
:10028000F4FCA7EB0507103F07F01F0BCBF120068E
:100290000CFA0BFB2CFA06F644BFB3460026202FBF
:1002A000A4BF5E464FF0000B5BEA060C08BF4FF0A0
:1002B000010B19EB0B09ABFB027C48EB0608C01BDA
:1002C00006FB02CC0BFB03CC71EB0C01C1E70B4628
:1002D000024641464846BDE8F08B13B54FF000009A
:1002E0004FF00001AFF30080BDE81C40704710B52F
:1002F000203AC0F00B80B1E81850203AA0E818501E
:10030000B1E81850A0E81850BFF4F5AF5FEA027CDE
:1003100024BFB1E81850A0E8185044BF18C918C04D
:10032000BDE810405FEA827C24BF51F8043B40F8EE
:10033000043B08BF7047D20728BF31F8023B48BFD3
:1003400011F8012B28BF20F8023B48BF00F8012B11
:1003500070474FF0000200B5134694469646203988
:1003600022BFA0E80C50A0E80C50B1F12001BFF46E
:10037000F7AF090728BFA0E80C5048BF0CC05DF8D4
:1003800004EB890028BF40F8042B08BF704748BF22
:1003900020F8022B11F0804F18BF00F8012B704796
:1003A000704770477047754600F02CF8AE46050060
:1003B0006946534620F00700854618B020B5FFF780
:1003C0000DFFBDE820404FF000064FF000074FF052
:1003D00000084FF0000B21F00701AC46ACE8C00963
:1003E000ACE8C009ACE8C009ACE8C0098D4670476C
:1003F00010B50446AFF300802046BDE81040FFF77B
:10040000D8BE00000048704758000020014918205D
:10041000ABBEFEE7260002007047FEE77047000013
:1004200070B5044600F028F90546601C02D0044867
:100430004068044400F020F9401BA042FAD370BD8C
:10044000000000202DE9F04FDFF80C92002201257A
:100450000324A9F1040B85B00F2609F1040AABF1BE
:10046000040EF0E005FA02F71CEA07037ED091F8CB
:1004700004C00CF0030CBCF1010F02D0BCF1020F60
:1004800026D1D0F808C0CDF800C04FEA420C04FADB
:100490000CF8CDF810C0DDF800C02CEA080CCDF83F
:1004A00000C0D1F80C80DDF810C008FA0CF8DDF8B7
:1004B00000C048EA0C08C0F80880D0F804C02CEA54
:1004C000070C0F79C7F30017974047EA0C074760FE
:1004D0000F79FF43BF070ED0C7684FEA420804FAFE
:1004E00008FC27EA0C07D1F808C00CFA08FC4CEA13
:1004F000070CC0F80CC00F7907F00307022F15D1C5
:10050000D70800EB870702973F6A4FEA427C4FEA21
:10051000DC6806FA08FC27EA0C07D1F810C00CFAD0
:1005200008FC4CEA070C029FC7F820C007684FEA96
:10053000420804FA08FC27EA0C0791F804C00CF002
:10054000030C0CFA08FC4CEA070CC0F800C04F681A
:1005500017F4403F76D0414FD7F800C04CF0010C63
:10056000C7F800C03F6807F0010700E06AE00097A5
:100570003B4F22F0030C67440297BF684FEA827C2E
:100580004FEA1C7806FA08FC27EA0C07DFF8D4C00B
:10059000604502D14FF0000C1DE0DFF8CCC0604593
:1005A00002D14FF0010C16E0DFF8C0C0604502D167
:1005B0004FF0020C0FE0DFF8B8C0604502D14FF0F9
:1005C000030C08E0DFF8ACC0604502D14FF0040C2A
:1005D00001E04FF0050C0CFA08FC4CEA070C029FF6
:1005E000C7F808C0D9F80070CC46D1F804809F4302
:1005F0005FEAC82800D51F43CCF80070DAF8007015
:10060000D446D1F804809F435FEA882800D51F4371
:10061000CCF80070DBF80070DC46D1F804809F4312
:100620005FEA883800D51F43CCF80070DEF8007010
:10063000F446D1F804809F435FEAC83800D51F43D1
:10064000CCF80070521C0B689C46D3407FF40AAF74
:1006500005B0BDE8F08F00000804014020380240DA
:100660000000014000000240000402400008024077
:10067000000C0240001002400148806870470000F2
:100680000000002002488168426811448160704780
:100690000000002010B50024032000F06BF80F20AC
:1006A00000F008F808B1012401E000F025F8204628
:1006B00010BD000070B50E4E05460024706898B15C
:1006C0004FF47A71B1FBF0F00A490968B1FBF0F020
:1006D00000F09CFB40B9102D06D200222946501E86
:1006E00000F028F8356000E00124204670BD0000CD
:1006F000000000200C0000200D4808B5016841F002
:1007000000410160016801F000410091011F0A6889
:1007100042F001020A60096801F0010100910168DC
:1007200041F080510160006800F08050009008BDE9
:1007300024380240F0B40E4B1B680C46C3F302236E
:10074000C3F10705042D00D90425191D072901D27D
:10075000002300E0DB1E012606FA05F1491E2140B8
:1007600099409E40761E16403143F0BC00F061BDBA
:100770000CED00E0064900F0070208684FF6FF03A1
:10078000184040EA0220034A104308607047000006
:100790000CED00E00000FA052DE9F0470E460500DB
:1007A00079D0DFF88481D8F8000000F00100B04271
:1007B00014D2012E05D1D8F8001041F00401C8F878
:1007C0000010D8F8001021F001013143C8F80010E2
:1007D000D8F8000000F00100B0425CD12878534CFA
:1007E000800705D52068A96820F0F0000843206044
:1007F0002878C0075CD04D496868083902281AD0AB
:1008000003281BD0096801281BD08905002966DA56
:10081000216821F0030101432160FFF72DFF696882
:10082000074641F28830022914D0032920D001293B
:1008300081462AD038E009688903E7E70968890119
:10084000E4E78907E2E700BFFFF716FFC11B494550
:1008500001D926E081462068C0F381000228F3D147
:1008600026E000BFFFF708FFC11B494501D918E08A
:1008700081462068C0F381000328F3D118E000BF4F
:10088000FFF7FAFEC11B49450BD82068C0F3810071
:100890000128F5D10CE022E0FFF7EEFEC11B49452F
:1008A00002D90320BDE8F087206810F00C0FF3D1C7
:1008B000D8F80010404601F00101B14211D9012ED3
:1008C00003D1016841F004010160016821F00101D8
:1008D00031430160006800F00100B04201D0012006
:1008E000E0E72878400705D52068E96820F4E06053
:1008F000084320602878000706D52068296920F47D
:10090000605040EAC100206000F038F82168084AD1
:10091000C1F30311515CC8400649086006480068ED
:10092000BDE8F047FFF7C6BE003C02400838024071
:100930000D1300080C0000200000002004480549A9
:1009400000680968044AC1F30221515CC84070473D
:100950000C000020083802401D1300080448054917
:1009600000680968044AC1F3C221515CC84070475D
:100970000C000020083802401D13000870B5154D0A
:100980002968154801F00C02042A0CD0134C082ADF
:100990000AD00C2A0AD0281F0068C0F342314FF455
:1009A0000040491C884070BD204670BD0C4AC1F310
:1009B0008343D35CC1F381522968521CC90302D519
:1009C000A3FB040101E0A3FB00010023FFF718FCD7
:1009D00070BD0000083802400024F40000366E01AB
:1009E000041300082DE9F84F04007DD0FC4801688D
:1009F000006801F00C0700F480362078F94DC0073C
:100A000041D0082F12D00C2F02D1B6F5803F0DD067
:100A10006068012811D008B1052818D0286820F492
:100A200080302860286820F4802009E0286880034E
:100A300029D560680028D8D025E0286840F48030A7
:100A40002860606890B1FFF717FE80460AE02868CA
:100A500040F480202860F0E7FFF70EFEA0EB0800CE
:100A600064287BD828688003F6D50CE0FFF704FEE5
:100A7000804605E0FFF700FEA0EB08006428F0D8F0
:100A800028688003F6D42078DFF85CB3DFF85C8355
:100A900080074FF001094FF0000A35D5042F0AD026
:100AA0000C2F00D13EB1E068F8B1C8F80090FFF714
:100AB000E3FD06460BE0286880070BD5E0680128B7
:100AC00012D107E0FFF7D8FD801B0228C9D828689B
:100AD0008007F7D5DBF80010226921F4F85141EACC
:100AE0000221CBF800100FE077E1C8F800A0FFF773
:100AF000C3FD064605E000BFFFF7BEFD801B0228D0
:100B0000AFD828688007F7D42078C00674D53FB1E5
:100B1000A069E0B3C8F82090FFF7AEFD06464AE0B2
:100B20002868800502D5A069002884D0206ADBF8F7
:100B300000105E4601F46041884210D900F034FA9A
:100B40000028BDD13068216A20F46040084330603D
:100B5000217F306861F31F6030600FE096E03168FC
:100B600021F4604101433160217F306861F31F60EF
:100B70003060206A00F018FA0028A1D1216A4FF4F1
:100B8000004009EB513188409549096800E025E0B3
:100B9000974AC1F30311515CC840964908609648D2
:100BA0000068FFF787FD00286FD125E0FFF764FD9F
:100BB000801B02286AD828688005F7D5DBF800106A
:100BC000226A21F460411143CBF80010227FDBF848
:100BD000001062F31F61CBF800100DE0C8F820A0F0
:100BE000FFF74AFD064604E0FFF746FD801B02289A
:100BF0004CD828688005F7D42078804E000722D58D
:100C00007F48616981B1C0F80090FFF735FD8346E8
:100C100006E000BFFFF730FDA0EB0B00022835D83F
:100C200030688007F6D50EE0C0F800A0FFF724FD7D
:100C3000834605E0FFF720FDA0EB0B00022825D836
:100C400030688007F6D4207840076DD56B484FF0A8
:100C5000000B10380068C0000BD4684810380168D9
:100C600041F08051016000684FF0010B00F08050AE
:100C7000009064480168C90514D4016841F480718A
:100C80000160FFF7F9FC009008E08DE079E000BF1B
:100C9000FFF7F2FC0099401A642872D8594800689E
:100CA000C005F5D5A06801280AD008B1052811D0E3
:100CB000306820F480703060306820F4806002E09A
:100CC000306840F480703060A068A8B1FFF7D4FCB1
:100CD00000900DE0306840F480603060F0E700BFC5
:100CE000FFF7CAFC0099411A41F2883081425AD874
:100CF00030688005F4D50EE0FFF7BEFC009007E0F9
:100D0000FFF7BAFC0099411A41F2883081424AD873
:100D100030688005F4D4BBF1000F05D03748103897
:100D2000016821F080510160606A58B30C2F41D0F6
:100D30000228504605D0C8F86000FFF79DFC044625
:100D400034E04746C8F86000FFF796FC064604E02A
:100D5000FFF792FC801B022825D828688001F7D471
:100D6000D4E90A1001431E48226B036823F47D0373
:100D70001A4311430160C7F86090FFF77DFC0446F9
:100D800007E010E040E000BFFFF776FC001B022800
:100D900009D828688001F7D536E000BFFFF76CFC62
:100DA000001B022802D90320BDE8F88F28688001C3
:100DB000F4D429E00128F7D009480068A26A00F4B9
:100DC0008031914209D1E26A00F47011914204D15C
:100DD000216B00F44000884216D00120E4E70000B7
:100DE0000838024000380240043802400000474200
:100DF0000D1300080C0000200000002034380240D1
:100E000080064742007000400020CDE710B5401E2C
:100E1000B0F1807F01D3012010BD4FF0E02460616C
:100E20000F21601700F005FA0020A0610720206163
:100E3000002010BD70B5040004D094F841000025D6
:100E400010B106E0012070BD84F84050204600F04B
:100E500023F8242084F841002068C16821F400515F
:100E6000C160204600F01AF92068016921F4904120
:100E700001612068416921F02A0141612068C1684F
:100E800041F40051C1606564202084F8410084F879
:100E900042006563002070BD10B586B00446142181
:100EA0006846FFF756FA14492068884221D1134852
:100EB000016841F480210160006800F48020059001
:100EC0000E480838016841F0020101600068694677
:100ED00000F0020005904FF4406000900220019065
:100EE0000020029003200390072004900448FFF79D
:100EF000A9FA06B010BD00000048004024380240A6
:100F0000000402402DE9F843044690F841001F46D2
:100F100016460D46202802D00220BDE8F8837DB198
:100F200076B100206064212084F84100FFF7A4FB23
:100F3000A6848046E684A068B0F5805F02D003E016
:100F40000120EAE7206910B12E4600250EE00026B8
:100F50000CE08021204600F02FF9A0B9AEB116F8C0
:100F6000010B21684860E08C401EE084E08C434621
:100F70004FF0000200970028EBD14FF040012046CF
:100F800000F01AF930B10320C7E735F8020BC0F3BF
:100F90000800E6E7202084F841000020BDE7FEE7D6
:100FA000FEE7FEE77047000038B51C4900230968DA
:100FB0001B4A11F0F00F23D118491C310C68E500D1
:100FC000184C03D5216801F4C0540EE00D6845F0BB
:100FD00080550D600D6805F08055009524680D68FA
:100FE00004F4C05425F080550D60B4F5C05F07D1FE
:100FF000B0F5404F04D11068012340F004001060A8
:10100000106820F0010018431060106800F0010023
:10101000984201D0012038BD002038BD0838024078
:10102000003C0240007000407047FFF72BBB0000FF
:1010300010B592B034216846FFF78BF914210DA842
:10104000FFF787F91348016821F4C05141F40061AA
:1010500001601020009001200024CDE906044FF427
:101060002040CDE908046846FFF7BCFC08B172B621
:10107000FEE70F20CDE90D040F94109400210DA878
:101080001194FFF789FB002801D072B6FEE712B079
:1010900010BD000000700040704700002DE9F041D5
:1010A000044600680169E26821F44051114301617E
:1010B0002169A068E2690843616911432268084315
:1010C000D16849F20C6399430143D16020684169BA
:1010D000A26921F440711143416136492068884278
:1010E00002D1FFF73BFC01E0FFF728FC0246E36971
:1010F00064203221B3F5004F02EBC20303EB02136D
:1011000062682BD09200B3FBF2F5B5FBF0F5B3FBB0
:10111000F2F66FF018077D4306EB8505B3FBF2F698
:1011200001EB0515B5FBF0F5B6FBF0F605F0F005A3
:1011300005EB0615B3FBF2F6B3FBF2F2B2FBF0F2ED
:101140007A4306EB820201EB0211B1FBF0F000F0F2
:101150000F00216828448860BDE8F0815200B3FB8D
:10116000F2F6B6FBF0F6B3FBF2F7B3FBF2F56FF075
:10117000180C06FB0CF607EB860601EBC606B5FB62
:10118000F0F5B6FBF0F62D0106F0F80605EB460586
:10119000B3FBF2F6B3FBF2F2B2FBF0F202FB0CF29D
:1011A00006EB820201EBC201B1FBF0F000F0070098
:1011B000CFE70000003801402DE9F041984617467E
:1011C0000E460446069D27E0681C25D02DB1FFF78A
:1011D00053FAA0EB0800A8421ED920680C3050E852
:1011E000001F21F4D07140E80012002AF5D12068D8
:1011F000143050E8001F21F0010140E80012002ADD
:10120000F5D1202084F8410084F84200002084F8C1
:1012100040000320BDE8F0812068006836EA000045
:1012200004D00020B842CFD00020F3E70120F9E736
:10123000FEE70907090E002804DB00F1E02080F832
:101240000014704700F00F0000F1E02080F8141D3A
:10125000704700008CB0FFF71DFAFFF7E9FE204849
:10126000016841F0020101600068142100F00200F1
:101270000A906846FFF76DF84FF440600090022036
:101280000024CDE90104032003900720049069465F
:101290001448FFF7D7F81548134901604FF4E131BE
:1012A000C0E901140C21C460C0E904418461C46137
:1012B000FFF7C0FD08B172B6FEE714220CA105A825
:1012C000FFF715F84FF0FF344FF47A7523461022DC
:1012D00005A90648FFF716FE2846FFF7A1F8F5E72F
:1012E0001C3802400004024000480040100000206A
:1012F00048656C6C6F2C20555341525433210D0AB4
:1013000000000000030406080C1018203000000044
:1013100000000000000102030406070809000000A5
:101320000001020304000000481300080000002030
:101330001000000060010008581300081000002091
:10134000A80600007C010008100000000100000059
:081350000000000068FF1F000F
:0400000508000125C9
:00000001FF
