:020000040800F2
:10000000C8060020C1010008EB0F0008E70F000838
:10001000E90F0008B7030008A11100080000000064
:100020000000000000000000000000007110000847
:10003000B903000800000000ED0F0008731000086D
:10004000DB010008DB010008DB010008DB01000820
:10005000DB010008DB010008DB010008DB01000810
:10006000DB010008DB010008DB010008DB01000800
:10007000DB010008DB010008DB010008DB010008F0
:10008000DB010008DB010008DB010008DB010008E0
:10009000DB010008DB010008DB010008DB010008D0
:1000A00000000000DB010008DB010008DB010008A4
:1000B000DB010008E5100008DB010008DB01000897
:1000C000DB010008DB010008DB010008DB010008A0
:1000D000DB010008DB010008DB010008DB01000890
:1000E000DB010008DB010008DB010008DB01000880
:1000F000DB01000800000000DB010008DB01000854
:100100000000000000000000DB010008DB01000827
:10011000DB010008DB010008DB0100080000000033
:10012000DB01000800F002F800F03AF80AA090E8BD
:10013000000C82448344AAF10107DA4501D100F0A2
:100140002FF8AFF2090EBAE80F0013F0010F18BF35
:10015000FB1A43F001031847E810000008110000E3
:10016000103A24BF78C878C1FAD8520724BF30C8E3
:1001700030C144BF04680C607047000000230024B5
:1001800000250026103A28BF78C1FBD8520728BFA7
:1001900030C148BF0B6070471FB51FBD10B510BD03
:1001A00000F0CFF81146FFF7F7FF01F02BF800F051
:1001B000EDF803B4FFF7F2FF03BC00F0F5F8000020
:1001C0000948804709480047FEE7FEE7FEE7FEE7EB
:1001D000FEE7FEE7FEE7FEE7FEE7FEE70448054927
:1001E000054A064B70470000E11000082501000891
:1001F000C8000020C8060020C8020020C802002055
:1002000053EA020C00F069802DE9F04B4FF0000634
:10021000002B1FBFB3FA83F503FA05F424FA05F6A1
:100220005E4012BF1643B2FA82F502FA05F4C5F138
:1002300020051EBF22FA05FC44EA0C04203556EACC
:10024000044C4FEA144418BF641C4FF000084FF0F0
:100250000009904271EB030C39D3002919BFB1FAA0
:1002600081F701FA07F6B0FA80F700FA07F6C7F14E
:1002700020071EBF20FA07FC46EA0C062037B6FB13
:10028000F4FCA7EB0507103F07F01F0BCBF120068E
:100290000CFA0BFB2CFA06F644BFB3460026202FBF
:1002A000A4BF5E464FF0000B5BEA060C08BF4FF0A0
:1002B000010B19EB0B09ABFB027C48EB0608C01BDA
:1002C00006FB02CC0BFB03CC71EB0C01C1E70B4628
:1002D000024641464846BDE8F08B13B54FF000009A
:1002E0004FF00001AFF30080BDE81C4070474FF0B5
:1002F000000200B5134694469646203922BFA0E876
:100300000C50A0E80C50B1F12001BFF4F7AF090781
:1003100028BFA0E80C5048BF0CC05DF804EB890072
:1003200028BF40F8042B08BF704748BF20F8022BB5
:1003300011F0804F18BF00F8012B704770477047CD
:100340007047754600F02CF8AE46050069465346E6
:1003500020F00700854618B020B5FFF73FFFBDE845
:1003600020404FF000064FF000074FF000084FF01C
:10037000000B21F00701AC46ACE8C009ACE8C009AD
:10038000ACE8C009ACE8C0098D46704710B504461A
:10039000AFF300802046BDE81040FFF70ABF000021
:1003A000004870476400002001491820ABBEFEE7FA
:1003B000260002007047FEE77047000070B5044653
:1003C00000F030F90546601C02D00448406804443F
:1003D00000F028F9401BA042FAD370BD00000020B5
:1003E0002DE9F04FDFF80C92002201250324A9F13A
:1003F000040B85B00F2609F1040AABF1040EF0E0FE
:1004000005FA02F71CEA07037ED091F804C00CF04D
:10041000030CBCF1010F02D0BCF1020F26D1D0F8C1
:1004200008C0CDF800C04FEA420C04FA0CF8CDF831
:1004300010C0DDF800C02CEA080CCDF800C0D1F8DF
:100440000C80DDF810C008FA0CF8DDF800C048EAAE
:100450000C08C0F80880D0F804C02CEA070C0F790B
:10046000C7F30017974047EA0C0747600F79FF432F
:10047000BF070ED0C7684FEA420804FA08FC27EA13
:100480000C07D1F808C00CFA08FC4CEA070CC0F8BD
:100490000CC00F7907F00307022F15D1D70800EB26
:1004A000870702973F6A4FEA427C4FEADC6806FA08
:1004B00008FC27EA0C07D1F810C00CFA08FC4CEA3B
:1004C000070C029FC7F820C007684FEA420804FAE9
:1004D00008FC27EA0C0791F804C00CF0030C0CFA96
:1004E00008FC4CEA070CC0F800C04F6817F4403F06
:1004F00076D0414FD7F800C04CF0010CC7F800C0CF
:100500003F6807F0010700E06AE000973B4F22F0E8
:10051000030C67440297BF684FEA827C4FEA1C785D
:1005200006FA08FC27EA0C07DFF8D4C0604502D1C0
:100530004FF0000C1DE0DFF8CCC0604502D14FF059
:10054000010C16E0DFF8C0C0604502D14FF0020C8C
:100550000FE0DFF8B8C0604502D14FF0030C08E0AF
:10056000DFF8ACC0604502D14FF0040C01E04FF061
:10057000050C0CFA08FC4CEA070C029FC7F808C0EF
:10058000D9F80070CC46D1F804809F435FEAC828B0
:1005900000D51F43CCF80070DAF80070D446D1F8CB
:1005A00004809F435FEA882800D51F43CCF8007081
:1005B000DBF80070DC46D1F804809F435FEA88389E
:1005C00000D51F43CCF80070DEF80070F446D1F877
:1005D00004809F435FEAC83800D51F43CCF8007001
:1005E000521C0B689C46D3407FF40AAF05B0BDE8AF
:1005F000F08F000008040140203802400000014054
:10060000000002400004024000080240000C0240CA
:1006100000100240426921EA02030A4043EA024113
:100620008161704701488068704700000000002029
:1006300002488168426811448160704700000020D0
:1006400010B50024032000F079F80F2000F008F81E
:1006500008B1012401E000F025F8204610BD00009B
:1006600070B50E4E05460024706898B14FF47A714B
:10067000B1FBF0F00A490968B1FBF0F000F08AFB29
:1006800040B9102D06D200222946501E00F036F83F
:10069000356000E00124204670BD0000000000200D
:1006A0000C0000200D4808B5016841F000410160D0
:1006B000016801F000410091011F0A6842F0010247
:1006C0000A60096801F001010091016841F0805160
:1006D0000160006800F08050009008BD243802409E
:1006E000002809DB00F01F02012191404009800031
:1006F00000F1E020C0F8001170470000F0B40E4B8C
:100700001B680C46C3F30223C3F10705042D00D96F
:100710000425191D072901D2002300E0DB1E012654
:1007200006FA05F1491E214099409E40761E16406A
:100730003143F0BC00F035BD0CED00E0064900F09F
:10074000070208684FF6FF03184040EA0220034AF8
:1007500010430860704700000CED00E00000FA054F
:100760002DE9F0470E46050079D0DFF88481D8F8EE
:10077000000000F00100B04214D2012E05D1D8F8DB
:10078000001041F00401C8F80010D8F8001021F062
:1007900001013143C8F80010D8F8000000F0010052
:1007A000B0425CD12878534C800705D52068A968F1
:1007B00020F0F000084320602878C0075CD04D4945
:1007C0006868083902281AD003281BD00968012854
:1007D0001BD08905002966DA216821F00301014355
:1007E0002160FFF71FFF6968074641F28830022940
:1007F00014D0032920D0012981462AD038E0096885
:100800008903E7E709688901E4E78907E2E700BFB0
:10081000FFF708FFC11B494501D926E08146206842
:10082000C0F381000228F3D126E000BFFFF7FAFEF3
:10083000C11B494501D918E081462068C0F38100F9
:100840000328F3D118E000BFFFF7ECFEC11B4945B8
:100850000BD82068C0F381000128F5D10CE022E01C
:10086000FFF7E0FEC11B494502D90320BDE8F08730
:10087000206810F00C0FF3D1D8F80010404601F0BA
:100880000101B14211D9012E03D1016841F00401E7
:100890000160016821F0010131430160006800F04E
:1008A0000100B04201D00120E0E72878400705D5DB
:1008B0002068E96820F4E060084320602878000799
:1008C00006D52068296920F4605040EAC100206004
:1008D00000F018F82168084AC1F30311515CC840C0
:1008E0000649086006480068BDE8F047FFF7B8BE53
:1008F000003C0240083802402D1200080C00002085
:100900000000002070B5154D2968154801F00C0253
:10091000042A0CD0134C082A0AD00C2A0AD0281F0B
:100920000068C0F342314FF40040491C884070BD5C
:10093000204670BD0C4AC1F38343D35CC1F381529E
:100940002968521CC90302D5A3FB040101E0A3FBE3
:1009500000010023FFF754FC70BD0000083802407E
:100960000024F40000366E01241200082DE9F84F2F
:1009700004007DD0FC480168006801F00C0700F419
:1009800080362078F94DC00741D0082F12D00C2FA7
:1009900002D1B6F5803F0DD06068012811D008B1B2
:1009A000052818D0286820F480302860286820F4B2
:1009B000802009E02868800329D560680028D8D005
:1009C00025E0286840F480302860606890B1FFF727
:1009D00029FE80460AE0286840F480202860F0E77D
:1009E000FFF720FEA0EB080064287BD8286880036E
:1009F000F6D50CE0FFF716FE804605E0FFF712FE85
:100A0000A0EB08006428F0D828688003F6D420788A
:100A1000DFF85CB3DFF85C8380074FF001094FF02B
:100A2000000A35D5042F0AD00C2F00D13EB1E06862
:100A3000F8B1C8F80090FFF7F5FD06460BE028680E
:100A400080070BD5E068012812D107E0FFF7EAFD27
:100A5000801B0228C9D828688007F7D5DBF800106A
:100A6000226921F4F85141EA0221CBF800100FE08D
:100A700077E1C8F800A0FFF7D5FD064605E000BF06
:100A8000FFF7D0FD801B0228AFD828688007F7D475
:100A90002078C00674D53FB1A069E0B3C8F82090B3
:100AA000FFF7C0FD06464AE02868800502D5A06928
:100AB000002884D0206ADBF800105E4601F4604113
:100AC000884210D900F094FA0028BDD13068216A1C
:100AD00020F4604008433060217F306861F31F607C
:100AE00030600FE096E0316821F4604101433160ED
:100AF000217F306861F31F603060206A00F078FA6F
:100B00000028A1D1216A4FF4004009EB51318840FF
:100B10009549096800E025E0974AC1F30311515C4B
:100B2000C8409649086096480068FFF799FD00287C
:100B30006FD125E0FFF776FD801B02286AD8286870
:100B40008005F7D5DBF80010226A21F460411143DB
:100B5000CBF80010227FDBF8001062F31F61CBF8A6
:100B600000100DE0C8F820A0FFF75CFD064604E089
:100B7000FFF758FD801B02284CD828688005F7D461
:100B80002078804E000722D57F48616981B1C0F886
:100B90000090FFF747FD834606E000BFFFF742FDE8
:100BA000A0EB0B00022835D830688007F6D50EE0A0
:100BB000C0F800A0FFF736FD834605E0FFF732FDE1
:100BC000A0EB0B00022825D830688007F6D42078E7
:100BD00040076DD56B484FF0000B10380068C0001F
:100BE0000BD468481038016841F0805101600068FA
:100BF0004FF0010B00F08050009064480168C90577
:100C000014D4016841F480710160FFF70BFD00907E
:100C100008E08DE079E000BFFFF704FD0099401A7D
:100C2000642872D859480068C005F5D5A068012825
:100C30000AD008B1052811D0306820F480703060E7
:100C4000306820F4806002E0306840F480703060EA
:100C5000A068A8B1FFF7E6FC00900DE0306840F412
:100C600080603060F0E700BFFFF7DCFC0099411ABC
:100C700041F2883081425AD830688005F4D50EE0C0
:100C8000FFF7D0FC009007E0FFF7CCFC0099411A79
:100C900041F2883081424AD830688005F4D4BBF1F3
:100CA000000F05D037481038016821F080510160ED
:100CB000606A58B30C2F41D00228504605D0C8F8BE
:100CC0006000FFF7AFFC044634E04746C8F8600018
:100CD000FFF7A8FC064604E0FFF7A4FC801B0228EF
:100CE00025D828688001F7D4D4E90A1001431E48AA
:100CF000226B036823F47D031A4311430160C7F894
:100D00006090FFF78FFC044607E010E040E000BF72
:100D1000FFF788FC001B022809D828688001F7D556
:100D200036E000BFFFF77EFC001B022802D903203B
:100D3000BDE8F88F28688001F4D429E00128F7D0B5
:100D400009480068A26A00F48031914209D1E26A40
:100D500000F47011914204D1216B00F440008842EC
:100D600016D00120E4E700000838024000380240B5
:100D700004380240000047422D1200080C000020F9
:100D800000000020343802408006474200700040D6
:100D90000020CDE710B5401EB0F1807F01D30120C7
:100DA00010BD4FF0E02460610F21601700F0F9F9E9
:100DB0000020A06107202061002010BD10B50400B4
:100DC00003D094F8390010B107E0012010BD0020D5
:100DD00084F83800204600F017F8022084F8390023
:100DE000211D206800F09AF9012084F83E0084F863
:100DF0003A0084F83B0084F83C0084F83D0084F815
:100E00003900002010BD000008B500680B49884279
:100E100012D10B48016841F0020101600068032211
:100E200000F00200009001211D20FFF767FCBDE8E3
:100E300008401D20FFF754BC08BD0000000400401E
:100E40002438024090F83910012901D00120704760
:100E5000022180F839100168CA6842F00102CA60B4
:100E60000068B0F1804F08D00949884205D009498F
:100E7000884202D00849884204D1816801F0070104
:100E8000062903D0016841F001010160002070478C
:100E9000000400400008004000080140704770B5A1
:100EA0000446006801694FF00005C943890715D45D
:100EB000C168C943890711D4E91E01610120207668
:100EC000206880698007204602D0FFF7E7FF04E032
:100ED00000F078F8204600F076F825762068016961
:100EE000C943490717D4C168C943490713D46FF0F0
:100EF00004010161022020762068806910F4407F9F
:100F0000204602D0FFF7CAFF04E000F05BF820465D
:100F100000F059F8257620680169C943090716D4FD
:100F2000C168C943090712D46FF0080101610420A8
:100F300020762068C0698007204602D0FFF7AEFF08
:100F400004E000F03FF8204600F03DF825762068E8
:100F50000169C943C90617D4C168C943C90613D476
:100F60006FF010010161082020762068C06910F43C
:100F7000407F204602D0FFF791FF04E000F022F806
:100F8000204600F020F8257620680169C943C9078A
:100F900008D1C168C943C90704D1891E016120462F
:100FA00000F012F820680169C943490609D4C168F4
:100FB000C943490605D46FF040010161204600F0A5
:100FC00011F870BD704770470449884204D14FF44E
:100FD00000510348FFF71EBB7047000024000020AB
:100FE000000802407047FEE7FEE7FEE7704700009A
:100FF00038B51C49002309681B4A11F0F00F23D1B2
:1010000018491C310C68E500184C03D5216801F41F
:10101000C0540EE00D6845F080550D600D6805F078
:101020008055009524680D6804F4C05425F080555F
:101030000D60B4F5C05F07D1B0F5404F04D1106822
:10104000012340F004001060106820F001001843F4
:101050001060106800F00100984201D0012038BDF6
:10106000002038BD08380240003C024000700040BB
:101070007047FFF7DDBA000010B592B03421684622
:10108000FFF735F914210DA8FFF731F9134801686E
:1010900021F4C05141F40061016010200090012052
:1010A0000024CDE906044FF42040CDE90804684649
:1010B000FFF75CFC08B172B6FEE70F20CDE90D0426
:1010C0000F94109400210DA81194FFF749FB0028FC
:1010D00001D072B6FEE712B010BD000000700040F3
:1010E000704700000148FFF7DABE0000240000202E
:1010F000094A10B5074BC2E900310021C2E90210CC
:1011000010461161FFF75AFEBDE810400248FFF794
:1011100099BE00000004004024000020F0B50268E1
:101120004FF0804C184B194C194D1A4E604507D0A2
:10113000984205D0A04203D0A84201D0B04205D1C8
:1011400022F070074A683A4360450DD098420BD0B0
:10115000A04209D0A84207D0B04205D00E4B984219
:1011600002D00E4B984203D122F44073CA681A434E
:101170000B6922F080021A4302608A68C262096821
:10118000816201214161F0BD00040040000800407F
:10119000000C004000080140000C0140001001401C
:1011A000FEE70907090E002804DB00F1E02080F8C3
:1011B0000014704700F00F0000F1E02080F8141DCB
:1011C000704700000C4882B0016841F004010160E2
:1011D00000684FF4005100F00400009007480160DF
:1011E000012141600321C160022181600146044860
:1011F00002B0FFF7F5B800001C38024010000020D4
:1012000000080240FFF71CFAFFF736FFFFF7DAFF8E
:1012100041F61F4140F2F310FFF76AFF6420FFF729
:10122000CDF8FBE7030406080C101820300000007E
:101230000000000000010203040607080900000086
:10124000601200080000002010000000600100088B
:101250007012000810000020B80600007C01000891
:1012600010000000010000000000000068FF1F00E7
:0400000508000125C9
:00000001FF
